:1000000012C019C018C017C016C015C014C013C044
:1000100012C011C010C00FC00EC00DC00CC00BC06C
:100020000AC009C008C011241FBECFE5D4E0DEBF5E
:10003000CDBF4FD06CC0E4CF85E080B981B18C7F5B
:1000400081B9089534EA50EA44E836BF06B607FE9F
:10005000FDCF21B1287F2830A1F553B946BF06B6A0
:1000600007FEFDCF21B1287F283179F793B994E8B5
:1000700096BF06B607FEFDCF91B1987F983219F56D
:1000800083B984E886BF06B607FEFDCF81B1887FBD
:100090008832D9F463B984E886BF06B607FEFDCF7F
:1000A00081B1887F883299F484E986BF06B604FC62
:1000B000FDCF87EB9BE00197F1F700C0000081E0E6
:1000C000089580E0089580E0089580E0089580E03C
:1000D00008958FEF81BBB0DF6FEF8FEF90E0B2DF5D
:1000E00087EA91E60197F1F700C000008FEF84BB2B
:1000F00015BAE7EAF1E63197F1F700C0000085BBD9
:10010000E7EAF1E63197F1F700C00000F0CFF8948C
:02011000FFCF1F
:00000001FF
