:1000000012C019C018C017C016C015C014C013C044
:1000100012C011C010C00FC00EC00DC00CC00BC06C
:100020000AC009C008C011241FBECFE5D4E0DEBF5E
:10003000CDBFA5D0BCC0E4CF11B880E280B984E8C0
:1000400086BF089524EA26BF06B607FEFDCF21B17C
:10005000287F283011F081B1089520EA23B924E8DF
:1000600026BF06B607FEFDCF21B1287F283111F04B
:1000700081B1089593B994E896BF06B607FEFDCF07
:1000800091B1987F983211F081B1089583B984E8D5
:1000900086BF06B607FEFDCF81B1887F883211F09A
:1000A00081B1089563B984E886BF06B607FEFDCF27
:1000B00081B1887F883211F081B1089584E986BFCB
:1000C00006B604FCFDCF8FEB9DE50197F1F700C06C
:1000D000000081E0089524EA26BF06B607FEFDCFA2
:1000E00021B1287F283011F081B1089520EA23B989
:1000F00024E826BF06B607FEFDCF93B994E896BF65
:1001000006B607FEFDCF91B1987F983211F081B10C
:10011000089583B984E886BF06B607FEFDCF81B196
:10012000887F883211F081B1089584EA86BF06B6CF
:1001300007FEFDCF81B1887F803111F081B1089534
:1001400081EA83B984E886BF06B607FEFDCF81B198
:10015000887F803411F081B1089584E886BF06B6A7
:1001600007FEFDCF81B1887F883511F081B10895F8
:1001700083B194E996BF06B604FCFDCF08958FEFD6
:1001800081BB5ADF67E08FE090E05CDF8FE090E0BA
:10019000A2DF873059F42FEF80E792E021508040B2
:1001A0009040E1F700C000008FEF82BBFFCFF894D2
:0201B000FFCF7F
:00000001FF
