:1000000012C02CC02BC02AC029C028C027C026C0BF
:1000100025C024C023C022C021C020C01FC01EC0D4
:100020001DC01CC01BC011241FBECFE5D4E0DEBF25
:10003000CDBF10E0A0E6B0E0EAEDF2E002C005902E
:100040000D92AA36B107D9F720E0AAE6B0E001C0C8
:100050001D92A137B207E1F7E0D03DC1D1CF11B871
:1000600080E280B984E886BF089594EA96BF06B618
:1000700007FEFDCF91B1987F9830C9F490ED93B908
:1000800094E896BF06B607FEFDCF91B1987F9831F0
:1000900081F483B984E886BF06B607FEFDCF81B13F
:1000A000887F883241F484E986BF80E0089581E04A
:1000B000089581E0089581E00895CF93DF931F9222
:1000C000CDB7DEB7898384EA86BF06B607FEFDCFCB
:1000D00081B1887F883091F580ED83B984E886BF4F
:1000E00006B607FEFDCF81B1887F883149F5898149
:1000F00083B984E886BF06B607FEFDCF81B1887F4D
:10010000883201F54423B1F0FB014150842F90E087
:100110000196680F791F94E8808183B996BF06B66F
:1001200007FEFDCF81B1887F883271F43196E617E2
:10013000F70791F784E986BF80E007C081E005C03A
:1001400081E003C081E001C081E00F90DF91CF9199
:100150000895DC0184EA86BF06B607FEFDCF81B1B3
:10016000887F8830C9F781ED83B984E886BF06B6F9
:1001700007FEFDCF81B1887F8034C9F7462F50E05C
:100180004150510914161506ACF490E084EC86BF7A
:1001900006B607FEFDCF21B1287F2035C9F7FD0146
:1001A000E90FF11D23B120839F5F292F30E0241731
:1001B00035076CF384E886BF06B607FEFDCF81B134
:1001C000887F8835C9F7862F90E00197A80FB91F5F
:1001D00083B18C9384E986BF80E00895982F96952B
:1001E000969596959E71292F220F220F920F8F7050
:1001F000890F08959DEC899F912D112496959695D0
:100200009695392F330F232F220F220F230F821B96
:1002100020E1929F800D112408958FEF81BB809182
:100220006900E8DFCAE6D0E0888380916800E2DFF9
:100230008983809162008823A1F080916700DADFD2
:10024000209162009091610030E4239FA00111246D
:1002500060E2969F90011124242B822B80936C00E6
:1002600005C080916700C6DF80936C0080916600B6
:10027000C1DFCAE6D0E08B8380916500BBDF8C8351
:1002800080916400B7DF8D8380916300B3DF8E833C
:10029000E6DE40916000BE0180E00FDF83EC99E074
:1002A0000197F1F700C0000080E0DFDE83EC99E009
:1002B0000197F1F700C0000060916000CE0149DFB6
:1002C0008C818CDF80936500809165008F3011F404
:0A02D0008FEF82BBFFCFF894FFCF41
:0A02DA0007010113050F040B3B3769
:00000001FF
