:1000000012C019C018C017C016C015C014C013C044
:1000100012C011C010C00FC00EC00DC00CC00BC06C
:100020000AC009C008C011241FBECFE5D4E0DEBF5E
:10003000CDBF3DD055C0E4CFC2980895C29A08956F
:100040008CE287BBBC98C29A81E58DB908958FEF89
:100050008FB9779BFECF8FB108958FB9779BFECF75
:100060000895CF93DF93C82FD92FE6DF83E0F5DF24
:100070008D2FF3DF8C2FF1DFEADFC82FDFDF8C2F2E
:10008000DF91CF9108951F93CF93DF93D82F192F2E
:10009000C62FD2DF82E0E1DF812FDFDF8D2FDDDFB2
:1000A0008C2FDBDFCBDFDF91CF911F9108958FEF96
:1000B00081BB12BA87EA91E60197F1F700C0000010
:1000C000BFDF6FE08FE09FE0DEDF83EC99E0019718
:1000D000F1F700C000008FE09FE0C3DF82BBFFCFDD
:0400E000F894FFCFC2
:00000001FF
