S00F000052616D546573742E7372656355
S113000012C021C020C01FC01EC01DC01CC01BC008
S11300101AC019C018C017C016C015C014C013C028
S113002012C011C010C011241FBECFE5D4E0DEBF42
S1130030CDBF20E0A0E6B0E001C01D92A136B2071A
S1130040E1F757D06FC0DCCFC2980895C29A0895E3
S11300508CE287BBBC98C29A81E58DB98FEF8093FF
S1130060600008958FEF8FB9779BFECF8FB108950D
S11300708FB9779BFECF0895CF9390916000981726
S113008071F0C82FE1DF81E0F3DF8C2FF1DFDEDFD9
S1130090DBDF85E0EDDFE6DF80936000D7DFCF9123
S11300A008951F93CF93DF93162FC42FD52FE4DF2A
S11300B0CBDF812FDDDF8D2FDBDF8C2FD9DFDF91CD
S11300C0CF911F910895CF93AC0163E081E0E9DF04
S11300D0C9DFC82FBBDF8C2FCF910895CF93C62FD4
S11300E0AC0162E081E0DDDF8C2FC2DFAFDFCF91B6
S11300F008958FEF81BB12BA87EA91E60197F1F771
S113010000C00000A5DF63E68FE09FE0E7DF83EC3B
S113011099E00197F1F700C000008FE09FE0D3DF82
S10B012082BBFFCFF894FFCF6E
S9030000FC
