S01700004763634170706C69636174696F6E312E737265635B
S113000012C024C023C022C021C020C01FC01EC0F3
S11300101DC01CC01BC01AC019C018C017C016C010
S113002015C014C013C011241FBECFE5D4E0DEBF39
S1130030CDBF12E0A0E6B0E0E4EBF3E002C005902F
S11300400D92A434B107D9F7B7D0B2C1D9CFCF93A9
S1130050C82FC1989DD18C2FA7D1C19A9BD1CF9184
S11300600895EF92FF920F931F93CF93DF938C0128
S1130070C19A8ED1F80101900020E9F73197E01B75
S1130080F10B1E161F061CF5E8010E0F1F1FE12CB5
S1130090F12C288130E020523109F901EE0FFF1FC5
S11300A0EE0FFF1FE20FF31FED59FF4FEE0DFF1D83
S11300B080817AD18FEFE81AF80A85E0E816F10416
S11300C041F780E071D121960C171D0701F762D129
S11300D0DF91CF911F910F91FF90EF9008950F93AF
S11300E01F93CF93DF93C82FC19A52D18C2F90E0E6
S11300F0EC01CC0FDD1FCC0FDD1FC80FD91FCD5372
S1130100D04000E010E089914FD10F5F1F4F0530C0
S11301101105C9F780E048D13DD1DF91CF911F91FE
S11301200F910895C0982FEF80E792E0215080400E
S11301309040E1F700C00000C09A0895F3DF81E227
S113014086DF80EC84DF87E082DF83E180DF80E28A
S11301507EDF8CE07CDF0895CF93C62F78DF8C2F71
S113016076DFCF910895882399F0813099F0823019
S113017099F0833099F0843099F0853099F0863085
S113018099F0873099F0883099F0893099F0089582
S113019080E3089581E3089582E3089583E3089555
S11301A084E3089585E3089586E3089587E3089535
S11301B088E3089589E30895CF93DF93CDB7DEB73D
S11301C029970FB6F894DEBF0FBECDBF87E38983AE
S11301D08BE38A838FE08B8381E08C8393E29D831E
S11301E09CE09E8392E19F83888789871DECD4D00D
S11301F0A5DF60E880E4B0DF8B81819F812D11242D
S1130200869586958695AFDF6ADF66E880E4A4DF8D
S11302108B81819F912D1124969596959695990F92
S1130220292F220F220F920F891B9DDF58DF62E9CD
S113023080E492DF8AE353DF68E980E48DDF8A811A
S1130240819F812D11248695869586958CDF47DFC5
S113025064E080E481DF8A81819F912D1124969549
S113026096959695990F292F220F220F920F891B8D
S11302707ADF35DF60E180E46FDF8AE330DF66E157
S113028080E46ADF8981819F812D1124869586957A
S1130290869569DF24DF64E280E45EDF8981819FE3
S11302A0912D1124969596959695990F292F220FA5
S11302B0220F920F891B57DF12DF60E881E44CDFC5
S11302C08D81819F812D11248695869586954BDF9E
S11302D006DF66E881E440DF8D81819F912D112442
S11302E0969596959695990F292F220F220F920F86
S11302F0891B39DFF4DE62E981E42EDF8FE2EFDE71
S113030068E981E429DF8E81819F812D11248695FE
S11303108695869528DFE3DE64E081E41DDF8E8127
S1130320819F912D1124969596959695990F292F35
S1130330220F220F920F891B16DFD1DE60E181E4C8
S11303400BDF8FE2CCDE66E181E406DF80E690E03D
S113035088DE68E281E400DF8F81819F812D112492
S1130360869586958695FFDEBADE64E381E4F4DE45
S11303708F81819F912D1124969596959695990F2D
S1130380292F220F220F920F891BEDDEA8DE2FCF1B
S1130390C2980895C29A08958FE287BBC09ABC9808
S11303A0C29A81E58DB908958FB9779BFECF0895E0
S10703B0F894FFCFEB
S11303B4323000000000000000005F00000007006D
S11303C40700147F147F14242A7F2A122313086439
S11303D46236495522500005030000001C224100E6
S11303E40041221C0014083E081408083E080800B2
S11303F4503000000808080808006060000020105D
S11304040804023E5149453E00427F400042615186
S113041449462141454B311814127F10274545455F
S1130424393C4A4949300171090503364949493679
S1130434064949291E0036360000005636000008D5
S11304441422410014141414140041221408020147
S1130454510906324979413E7E1111117E7F494981
S113046449363E414141227F4141221C7F49494949
S1130474417F090909013E4149497A7F0808087FF7
S113048400417F41002040413F017F081422417F05
S1130494404040407F020C027F7F0408107F3E41AD
S11304A441413E7F090909063E4151215E7F0919F4
S11304B42946464949493101017F01013F404040F1
S11304C43F1F2040201F3F4038403F6314081463FB
S11304D407087008076151494543007F4141000200
S11304E4040810200041417F00040201020440403A
S11304F4404040000102040020545454787F48448E
S113050444383844444420384444487F3854545488
S113051418087E0901020C5252523E7F08040478E2
S113052400447D40002040443D007F1028440000E6
S1130534417F40007C041804787C0804047838441F
S11305444444387C14141408081414187C7C0804D7
S113055404084854545420043F4440203C40402060
S11305647C1C2040201C3C4030403C44281028443F
S11305740C5050503C4464544C4400083641000030
S1130584007F00000041360800100808100878466F
S10705944146780060
S9030000FC
