S01700004763634170706C69636174696F6E372E7372656355
S113000012C024C023C022C021C020C01FC01EC0F3
S11300101DC01CC01BC01AC019C018C017C016C010
S113002015C014C013C011241FBECFE5D4E0DEBF39
S1130030CDBF12E0A0E6B0E0E4E8F1E002C0059034
S11300400D92AC34B107D9F77BD09AC0D9CFC298FE
S11300500895C29A08958FE287BBC09ABC98C29A49
S113006081E58DB908958FB9779BFECF0895CF931D
S1130070C82FC198ECDF8C2FF6DFC19AEADFCF914D
S11300800895EF92FF920F931F93CF93DF938C0108
S1130090C19ADDDFF80101900020E9F73197E01BF8
S11300A0F10B1E161F061CF5E8010E0F1F1FE12C95
S11300B0F12C288130E020523109F901EE0FFF1FA5
S11300C0EE0FFF1FE20FF31FE559FF4FEE0DFF1D6B
S11300D08081C9DF8FEFE81AF80A85E0E816F10499
S11300E041F780E0C0DF21960C171D0701F7B1DF4F
S11300F0DF91CF911F910F91FF90EF900895C098D9
S11301002FEF80E792E0215080409040E1F700C05B
S11301100000C09A0895F3DF81E2A9DF80ECA7DF35
S113012087E0A5DF83E1A3DF80E2A1DF8CE09FDF2E
S11301300895CF93C62F9BDF8C2F99DFCF9108951D
S11301408FEF84BB88DFE7DF60E880E4F2DF80E6DE
S113015090E097DF8FEF85BB2FEF30E792E02150DF
S113016030409040E1F700C0000015BA2FEF30E7AF
S113017092E0215030409040E1F700C00000EBCF06
S1070180F894FFCF1D
S1130184456C656374726F6E69630000000000005F
S113019400005F00000007000700147F147F14248C
S11301A42A7F2A1223130864623649552250000513
S11301B4030000001C2241000041221C0014083EDC
S11301C4081408083E08080050300000080808080D
S11301D408006060000020100804023E5149453EB6
S11301E400427F400042615149462141454B311848
S11301F414127F1027454545393C4A494930017159
S11302040905033649494936064949291E00363643
S1130214000000563600000814224100141414147B
S11302241400412214080201510906324979413E5D
S11302347E1111117E7F494949363E414141227F55
S11302444141221C7F494949417F090909013E4131
S113025449497A7F0808087F00417F4100204041D2
S11302643F017F081422417F404040407F020C023A
S11302747F7F0408107F3E4141413E7F09090906FE
S11302843E4151215E7F09192946464949493101B4
S1130294017F01013F4040403F1F2040201F3F4059
S11302A438403F6314081463070870080761514910
S11302B44543007F41410002040810200041417F6E
S11302C400040201020440404040400001020400D2
S11302D420545454787F484444383844444420389F
S11302E44444487F3854545418087E0901020C527B
S11302F452523E7F0804047800447D400020404468
S11303043D007F1028440000417F40007C04180411
S1130314787C0804047838444444387C141414085D
S1130324081414187C7C0804040848545454200405
S11303343F4440203C4040207C1C2040201C3C4046
S113034430403C44281028440C5050503C446454DD
S11303544C44000836410000007F00000041360888
S10F036400100808100878464146780094
S9030000FC
