:1000000013C05CC0AFC035C034C033C032C031C0D3
:1000100030C02FC02EC02DC02CC02BC02AC029C07C
:1000200028C027C026C0070111241FBECFE5D4E099
:10003000DEBFCDBF12E0A0E6B0E0E6EEF6E002C023
:1000400005900D92A23DB107D9F722E0A2EDB2E0F2
:1000500001C01D92A93DB207E1F710E0C4E1D0E074
:1000600003C02197FE0137D3C331D107D1F702D0A6
:1000700038C3C6CF85B78A6085BF8BB7806C8BBF0E
:100080007894A59AAD9A82ED92E023D140E060E0A9
:1000900082ED92E0E7D06CEE70E082ED92E060D10C
:1000A0002091D5023091D6024091D7025091D802CA
:1000B00060E670E082ED92E014D2FFCF1F920F92C3
:1000C0000FB60F9211242F933F934F935F936F932B
:1000D0007F938F939F93AF93BF93EF93FF93809101
:1000E000D5029091D602059754F48091D502909153
:1000F000D60201969093D6028093D50215C08091C6
:10010000D5029091D602059779F48091D70290910B
:10011000D80205974CF48091D7029091D8020196AD
:100120009093D8028093D7022091D5023091D602C5
:100130004091D7025091D80260E670E082ED92E0E3
:10014000D0D1FF91EF91BF91AF919F918F917F910E
:100150006F915F914F913F912F910F900FBE0F9034
:100160001F9018951F920F920FB60F9211242F9384
:100170003F934F935F936F937F938F939F93AF932F
:10018000BF93EF93FF938091D5029091D60202978F
:1001900054F08091D5029091D60201979093D602A7
:1001A0008093D50216C08091D5029091D602019716
:1001B00081F48091D7029091D802181619064CF458
:1001C0008091D7029091D80201979093D8028093A2
:1001D000D7022091D5023091D6024091D70250919A
:1001E000D80260E670E082ED92E07BD1FF91EF9162
:1001F000BF91AF919F918F917F916F915F914F913F
:100200003F912F910F900FBE0F901F90189582ED88
:1002100092E03AD00895C298672B11F0C69A14C0A4
:10022000C69812C09A01082E02C0359527950A94E7
:10023000E2F720FF02C0C39A01C0C398C59AC598CF
:10024000019780F7C29A089587E090E050E0EACFE6
:10025000462F60E070E0DFDF0895462F61E070E038
:10026000DADF0895CF93DF93EC016883498360E27E
:10027000EFDF68816068CE01EBDF69816064CE01E9
:10028000E7DFDF91CF910895FC0110821182128285
:1002900087B38E6687BB88B3866088BB089588B3B2
:1002A000866088BBC198C19A08950F931F93CF931E
:1002B000DF938C0140E060E0D5DFC8EFD1E060E083
:1002C000C801CBDF2197D9F7DF91CF911F910F9113
:1002D0000895CF93DF93EC01E2DF61E2CE01B8DF56
:1002E00060E9CE01B5DF64E0CE01B2DF64E1CE01AA
:1002F000AFDF60E2CE01ACDF60E8CE01A9DF60E4F1
:10030000CE01A6DF6CE0CE01A3DFCE01CEDFDF9110
:10031000CF910895EF92FF920F931F93CF93DF93A6
:100320007C0170E0EB01CC0FDD1FCC0FDD1F6C0FEB
:100330007D1FEB01CE5ADF4F00E010E06991C7014D
:100340008CDF0F5F1F4F05301105C1F760E0C7015B
:1003500084DFDF91CF911F910F91FF90EF9008956F
:10036000CF92DF92EF92FF920F931F93CF93DF9381
:100370007C01FB018081811105C02AC01016110685
:10038000E4F00AC0FB01319600E010E00F5F1F4F60
:1003900081918111FBCFF2CF8EE090E09C01201B78
:1003A000310B8901C901880F991F080F191F000F10
:1003B000111F1016110674F016C0EB016B01C00E70
:1003C000D11E6991C701A6DFCC16DD06D1F7E4CFB7
:1003D00004E510E0C0E0D0E060E0C7013EDF219618
:1003E0000C171D07C9F7DF91CF911F910F91FF9057
:1003F000EF90DF90CF900895EF92FF920F931F93AD
:10040000CF93DF938C0170E0EB01CC0FDD1FCC0F9D
:10041000DD1F6C0F7D1FEB01CE5ADF4FE12CF12C5D
:1004200069916095C80119DF8FEFE81AF80A85E035
:10043000E816F104A9F76FEFC8010FDFDF91CF9144
:100440001F910F91FF90EF900895CF92DF92EF925E
:10045000FF920F931F93CF93DF937C01FB01808169
:10046000811105C02AC010161106E4F00AC0FB0174
:10047000319600E010E00F5F1F4F81918111FBCF9B
:10048000F2CF8EE090E09C01201B310B8901C90165
:10049000880F991F080F191F000F111F1016110642
:1004A00074F016C0EB016B01C00ED11E6991C7013B
:1004B000A3DFCC16DD06D1F7E4CF04E510E0C0E001
:1004C000D0E06FEFC701C9DE21960C171D07C9F7F1
:1004D000DF91CF911F910F91FF90EF90DF90CF9020
:1004E00008952F923F924F925F926F927F928F92D8
:1004F0009F92AF92BF92CF92DF92EF92FF920F93B3
:100500001F93CF93DF9300D000D000D0CDB7DEB7DC
:100510003C012901440F551FCA01880F991F880FFC
:10052000991F880F991F841B950B4B01880E991EEC
:100530005C012EE0A20EB11CA60EB71E6C012CE1D0
:10054000C20ED11CC60ED71E2C2C3D2C7C012AE2DB
:10055000E20EF11CE60EF71EE982FA82C8968B01C4
:10056000080F191F0B831C831E821D828D819E81A3
:10057000892B69F491E04916510409F48BC041E0DC
:1005800060E0C3016FDEB401C301EADE1CC08D81EF
:100590009E810197C1F492E04916510441F042E076
:1005A00060E0C3015FDEB501C301DADE2DC042E0C9
:1005B00060E0C30157DEB501C30147DF8D819E8135
:1005C000029789F021C08D819E810297E9F493E022
:1005D0004916510461F043E060E0C30143DEB60117
:1005E000C301BEDE32C023E04216510471F543E080
:1005F00060E0C30137DE622D732DC30126DF8D81DC
:100600009E81039789F021C08D819E810397E9F433
:1006100094E04916510461F044E060E0C30122DE39
:10062000B701C3019DDE2DC024E04216510449F5F7
:1006300044E060E0C30116DE69817A81C30105DF11
:100640008D819E81049789F01CC08D819E810497C5
:10065000C1F495E04916510461F045E060E0C30142
:1006600001DEB801C3017CDE1DC025E04216510445
:10067000C9F445E060E0C301F5DD6B817C81C30115
:10068000E4DE8D819E8101969E838D83059709F01E
:100690006DCF08C041E060E0C301E4DDB401C301F7
:1006A000D4DEB2CF26960FB6F894DEBF0FBECDBF14
:1006B000DF91CF911F910F91FF90EF90DF90CF903E
:1006C000BF90AF909F908F907F906F905F904F9072
:1006D0003F902F900895EE0FFF1F0590F491E02DAD
:0606E0000994F894FFCF1D
:1006E600312E76696E683230636D00000000322E5E
:1006F60076696E686375746F00000000332E766944
:100706006E6863756B68756E6700342E76696E6801
:100716006269676469636B00352E76696E686B681B
:100726006F6169746F00362E76696E68736578003E
:1007360000000000372E74686963686469740000FD
:100746000000382E6469746469746469740000007A
:10075600392E6469746D656D617900000000313071
:100766002E6361706461746D61616E004C4953540F
:100776003A00000000000000005F000000070007CC
:1007860000147F147F14242A7F2A1223130864621C
:1007960036495522500005030000001C2241000086
:1007A60041221C0014083E081408083E08080050A0
:1007B60030000008080808080060600000201008E3
:1007C60004023E5149453E00427F40004261514984
:1007D600462141454B311814127F102745454539AE
:1007E6003C4A4949300171090503364949493606EB
:1007F6004949291E00363600000056360000081406
:100806002241001414141414004122140802015148
:100816000906324979413E7E1111117E7F494949C7
:10082600363E414141227F4141221C7F494949418F
:100836007F090909013E4149497A7F0808087F0076
:10084600417F41002040413F017F081422417F4003
:100856004040407F020C027F7F0408107F3E4141EA
:10086600413E7F090909063E4151215E7F0919294A
:1008760046464949493101017F01013F4040403F19
:100886001F2040201F3F4038403F63140814630771
:10089600087008076151494543007F414100020441
:1008A6000810200041417F0004020102044040403C
:1008B6004040000102040020545454787F484444C8
:1008C600383844444420384444487F3854545418F3
:1008D600087E0901020C5252523E7F080404780039
:1008E600447D40002040443D007F102844000041E4
:1008F6007F40007C041804787C080404783844445B
:1009060044387C14141408081414187C7C08040455
:10091600084854545420043F4440203C4040207C26
:100926001C2040201C3C4030403C44281028440CED
:100936005050503C4464544C44000836410000007A
:100946007F0000004136080010080810080000006B
:0209560000009F
:00000001FF
