S01700004763634170706C69636174696F6E352E7372656357
S11300000C942A000C943F000C943F000C943F0085
S11300100C943F000C943F000C943F000C943F0060
S11300200C943F000C943F000C943F000C943F0050
S11300300C943F000C943F000C943F000C943F0040
S11300400C943F000C943F000C943F000C943F0030
S11300500C943F0011241FBECFE5D8E0DEBFCDBF16
S113006010E0A0E6B0E0EAE3F5E002C005900D92EE
S1130070A83DB107D9F70E94E6010C949B020C94A9
S1130080000085E080B981B18C7F81B9089534EA9C
S113009050EA44E836BF06B607FEFDCF21B1287FFB
S11300A02830A1F553B946BF06B607FEFDCF21B1EE
S11300B0287F283179F793B994E896BF06B607FEEE
S11300C0FDCF91B1987F983219F583B984E886BF42
S11300D006B607FEFDCF81B1887F8832D9F463B9B3
S11300E084E886BF06B607FEFDCF81B1887F8832DB
S11300F099F484E986BF06B604FCFDCF87EB9BE048
S11301000197F1F700C0000081E0089580E00895B0
S113011080E0089580E0089580E0089534EA50EA8C
S113012044E836BF06B607FEFDCF21B1287F28304C
S113013009F041C053B946BF06B607FEFDCF21B151
S1130140287F283171F793B994E896BF06B607FE65
S1130150FDCF91B1987F983281F583B984E886BF49
S113016006B607FEFDCF81B1887F883241F584EA67
S113017086BF06B607FEFDCF81B1887F803109F5C1
S113018081EA83B984E886BF06B607FEFDCF81B154
S1130190887F8034C1F484E886BF06B607FEFDCFAD
S11301A081B1887F883589F483B194E996BF06B616
S11301B004FCFDCF089580E0089580E0089580E078
S11301C0089580E0089580E0089580E0089587B35D
S11301D0807F87BBAE9AAF9882E08A95F1F7C49A84
S11301E092E09A95F1F786B38295807F92E09A9592
S11301F0F1F7C49894E09A95F1F7C49A92E09A952D
S1130200F1F796B392E09A95F1F7C49894E09A9531
S1130210F1F7882324F3AE9887B38F6087BB0895E2
S1130220282F22952F708F70611102C0AF9801C0E2
S1130230AF9A92E09A95F1F7C49A98B3907F922B73
S113024098BB94E09A95F1F7C49894E09A95F1F7E5
S1130250C49A98B3907F892B88BB84E08A95F1F780
S1130260C49894E09A95F1F70E94E7000895CF931B
S1130270C82F2FE389E191E0215080409040E1F7BD
S113028000C0000087B38F6087BBBC9AA79AA69A68
S113029088B3807F88BBC498AE98AF9800C000C074
S11302A0C49AC19A24E02A95F1F7C49884E08A9507
S11302B0F1F70E94E70060E08C2F8C600E9410012F
S11302C060E088E20E941001CF910895CF93DF93FC
S11302D0EC018881882339F0219661E00E941001A5
S11302E089918111FACFDF91CF910895EF92FF9216
S11302F00F931F93CF93DF9300D000D01F92CDB7FD
S1130300DEB77B01FE01319625E0DF011D922A95BF
S1130310E9F7009759F035962AE030E0B9010E94D8
S113032073028293862F972F0097C1F7BFEFEB16C6
S1130330FB0669F4898181111EC0FE01329600E03A
S113034010E00F5F1F4F81918823D9F310C005E09F
S113035010E00E191F090BC0F80181918F0161E0B3
S1130360805D0E9410010E151F05B1F711C0053004
S113037011051CF00DC000E010E081E090E08C0F4E
S11303809D1F080F191F7E0196E0E90EF11CE4CFB2
S11303900F900F900F900F900F90DF91CF911F91BE
S11303A00F91FF90EF900895883230F461118064CA
S11303B060E080680E941001089584E620E030E047
S11303C0F9013197F1F78150D9F7089581E00E943E
S11303D037010E94410080E090E00197F1F760E06E
S11303E081E00E94100180E690E00E94660161E0D5
S11303F080E00E94D40180E790E00E9466010E94A0
S1130400DD0160E081E00E94100185E790E00E9438
S11304106601C0E0D0E067E0CE010E944700811190
S11304201CC060E081E00E94100181E890E00E941D
S1130430660161E080E00E94D40180E990E00E94BE
S1130440660164E070E0CE010E9476010E94DD0145
S113045060E081E00E94100106C02196C11580E28F
S1130460D807C9F637C00E94DD0160E081E00E9430
S113047010018AE990E00E946601C0E0D0E0CE015C
S11304800E948E008730C1F060E081E00E9410017C
S113049088EA90E00E94660161E080E00E94D40155
S11304A080E990E00E94660164E070E0CE010E9461
S11304B076010E94DD010DC02196C11580E2D807A6
S11304C0F1F660E081E00E94100186EB90E00E946A
S11304D06601FFCF60E081E00E94100186EC90E0AD
S11304E00E946601C0CF97FB072E16F4009407D034
S11304F077FD09D00E94870207FC05D03EF4909551
S113050081959F4F0895709561957F4F0895AA1B1B
S1130510BB1B51E107C0AA1FBB1FA617B70710F0EA
S1130520A61BB70B881F991F5A95A9F7809590951C
S10D0530BC01CD010895F894FFCF3B
S113053A45787465726E616C20454550524F4D0082
S113054A54657374005772697474696E672E2E2E1B
S113055A005772697465204661696C6564202100DC
S113056A416464657373203D200056657269667937
S113057A696E67202E2E2E005665726966792046AA
S113058A61696C65640057726974652053756363A5
S113059A6573732021005772697474656E2038314B
S10B05AA3932627974657300B3
S9030000FC
