:1000000012C02CC02BC02AC029C028C027C026C0BF
:1000100025C024C023C022C021C020C01FC01EC0D4
:100020001DC01CC01BC011241FBECFE5D4E0DEBF25
:10003000CDBF10E0A0E6B0E0EAE2F4E002C0059037
:100040000D92A636B107D9F720E0A6E6B0E001C0D0
:100050001D92AA36B207E1F787D0E5C1D1CF10BC17
:1000600083E389B980B5866880BD539A08955D9B06
:10007000FECF8CB908951F93CF93DF93182FEB0118
:1000800083E090E0AFD0FC011083D283C1831C16C3
:100090001D066CF43396BE01660F771F6D5F7F4FB0
:1000A000680F791F11921192E617F707D9F7DF91C0
:1000B000CF911F910895EF92FF920F931F93CF93CB
:1000C000DF937C01862FF701C081D181209721F039
:1000D000023011053CF419C0BA01CDDFF70191835C
:1000E000808327C0D90112967801EE0CFF1CE20E26
:1000F000F31EED91FD91EE0FFF1FEC0FFD1FC3816D
:10010000D481AE15BF05A9F702C001E010E001508F
:100110001048000F111FF901E00FF11F008111813C
:10012000BA01A9DFF801EE0FFF1FEC0FFD1F94834A
:100130008383DF91CF911F910F91FF90EF900895EE
:100140001416150684F4DB01440F551F640F751F48
:10015000ED91FD91EE0FFF1FE80FF91F8381948150
:10016000A617B707A9F70895CF93DF9300D000D063
:1001700000D0CDB7DEB71A82198281E090E09C836F
:100180008B8363E070E081E676DF9E838D8301E000
:1001900010E09E012F5F3F4F41E050E062E6CE014C
:1001A000059689DF9E012D5F3F4F41E050E06AE7F1
:1001B000CE01059680DF41E050E0BE016D5F7F4FCC
:1001C0008D819E81BDDF8C014ADFF80180814FDF88
:1001D000FFE32DE083E0F15020408040E1F700C0D4
:1001E0000000F3CF0F931F93CF93DF9382309105DD
:1001F00010F482E090E0E0916800F091690020E066
:1002000030E0A0E0B0E0309719F1408151810281E7
:10021000138148175907C8F08417950769F4109798
:1002200031F012960C93129713961C9327C00093EB
:1002300068001093690022C02115310519F042179A
:10024000530718F49A01BD01EF01DF01F801DBCF7C
:1002500021153105F9F0281B390B2430310580F4C4
:100260008A819B816115710521F0FB019383828353
:1002700004C09093690080936800FE01329644C0E8
:10028000FE01E20FF31F81939193225031093983CC
:1002900028833AC02091660030916700232B41F4F7
:1002A00020916200309163003093670020936600D4
:1002B00020916000309161002115310541F42DB786
:1002C0003EB74091640050916500241B350BE091CE
:1002D0006600F0916700E217F307A0F42E1B3F0BB6
:1002E0002817390778F0AC014E5F5F4F24173507A8
:1002F00048F04E0F5F1F5093670040936600819354
:10030000919302C0E0E0F0E0CF01DF91CF911F9127
:100310000F910895CF93DF93009709F481C0FC01FA
:10032000329713821282A0916800B09169001097F1
:1003300081F420813181820F931F209166003091DA
:1003400067002817390751F5F0936700E0936600BE
:1003500067C0ED0120E030E0CE17DF0740F44A81AE
:100360005B819E0141155105F1F0EA01F5CFD38380
:10037000C28340815181840F951FC817D90759F452
:1003800088819981840F951F0296918380838A8149
:100390009B81938382832115310529F4F0936900B1
:1003A000E09368003DC0E901FB83EA8349915991DC
:1003B000C40FD51FEC17FD0761F480819181840F74
:1003C000951F0296E90199838883828193819B839B
:1003D0008A83E0E0F0E012968D919C91139700974C
:1003E00019F0FD01DC01F7CF8D919C9111979D01D2
:1003F0002E5F3F4F820F931F209166003091670060
:100400002817390769F4309729F41092690010927F
:10041000680002C013821282B0936700A093660046
:0A042000DF91CF910895F894FFCF0B
:06042A0000006A00200042
:00000001FF
