:1000000012C04AC018C017C016C015C014C013C013
:1000100012C011C010C00FC00EC00DC00CC00BC06C
:100020000AC009C008C011241FBECFE5D4E0DEBF5E
:10003000CDBF02D040C0E4CF8FEF84BB11BA12BA5B
:1000400087BB2FE936E881E0215030408040E1F75E
:1000500000C000008BB780648BBF85B78C7F85BFE5
:100060009FEF15BA2FE936E881E0215030408040FB
:10007000E1F700C0000095BB18BA85B78F788062A1
:1000800085BF85B7806885BF7894889585B78F7759
:1000900085BF98BBF894E5CF1F920F920FB60F92D1
:1000A00011248F9385B3809585BB8F910F900FBEE0
:0A00B0000F901F901895F894FFCFF1
:00000001FF
