S00C0000546573742E7372656378
S113000012C06AC02BC02AC029C028C027C026C07D
S113001025C024C023C022C021C020C01FC01EC0D0
S11300201DC01CC01BC011241FBECFE5D4E0DEBF21
S1130030CDBF10E0A0E6B0E0E8E7F1E002C0059033
S11300400D92A836B107D9F720E0A8E6B0E001C0C8
S11300501D92AB36B207E1F72CD08CC0D1CF10BCC7
S113006083E389B980B5866880BD539A08955D9B02
S1130070FECF8CB90895CF93DF93EC018881882358
S113008029F02196F4DF89918111FCCFDF91CF9182
S1130090089585B7826085BF8BB780648BBF089550
S11300A08B98939A10926A001092690010926800DB
S11300B00895D5DFEEDFF4DF80E690E0DCDF7894AE
S11300C081E6D5DF2FEF82E597E021508040904014
S11300D0E1F700C00000F4CF1F920F920FB60F9209
S11300E011242F933F934F935F936F937F938F9339
S11300F09F93AF93BF93EF93FF9380B383FB8827C2
S113010080F990916A00992321F090916A009930C6
S113011088F080916A008F5F80936A0080916A0002
S11301208B30B9F480916900A2DF109269001092BB
S11301306A000FC020916A0090E0215002C0880F2D
S1130140991F2A95E2F790916900892B80936900A1
S1130150E0CFFF91EF91BF91AF919F918F917F91EC
S11301606F915F914F913F912F910F900FBE0F9020
S10B01701F901895F894FFCFCD
S10B0178426567696E210A006B
S9030000FC
