S00C0000546573742E7372656378
S113000012C035C04EC017C016C015C014C013C0EE
S113001012C011C010C00FC00EC00DC00CC00BC068
S11300200AC009C008C011241FBECFE5D4E0DEBF5A
S1130030CDBF02D04EC0E4CF8FEF84BB11BA12BA49
S113004085B78C7F85BF85B7886085BF8BB7806C8B
S11300508BBF78942FE986E891E02150804090404E
S1130060E1F700C0000085B3809585BBF3CF1F92F4
S11300700F920FB60F9211242F938F939F9315BA5B
S11300802FE38DE093E0215080409040E1F700C0E1
S113009000009F918F912F910F900FBE0F901F9092
S11300A018951F920F920FB60F9211248F9385B754
S11300B08F78806285BF85B7806885BF889585B74E
S11300C08F7785BFF8948F910F900FBE0F901F907C
S10900D01895F894FFCF1F
S9030000FC
