:1000000013C037C036C035C034C033C032C031C071
:1000100030C02FC02EC02DC02CC02BC02AC029C07C
:1000200028C027C026C04B0011241FBECFE5D4E056
:10003000DEBFCDBF12E0A0E6B0E0EAE7F1E002C02B
:1000400005900D92A835B107D9F724E0A8E5B2E0F4
:1000500001C01D92A335B207E1F710E0C4E1D0E082
:1000600003C02197FE0181D0C331D107D1F702D05F
:1000700082C0C6CFA59AAD9A88E592E05CD008E52B
:1000800012E0C0E6D0E0699188E592E02AD0C0177E
:10009000D107B9F3F8CF88E592E028D00895C29847
:1000A000672B11F0C69A14C0C69812C09A01082E88
:1000B00002C0359527950A94E2F720FF02C0C39A43
:1000C00001C0C398C59AC598019780F7C29A089550
:1000D00087E090E050E0EACF462F60E070E0DFDF9D
:1000E0000895462F61E070E0DADF0895DC011C928C
:1000F00011961C92119712961C9227B32E6627BB5D
:1001000028B3266028BBFC01339685509E4F119280
:10011000E817F907E1F7089588B3866088BBC198AE
:100120002FEF80E792E0215080409040E1F700C03F
:100130000000C19A0895CF93DF93EC01EDDFC298E0
:1001400061E2CE01C9DF64E0CE01C6DF64E1CE0129
:10015000C3DF61EACE01C0DF60E2CE01BDDF6CE04B
:10016000CE01BADFDF91CF910895EE0FFF1F05900A
:0A017000F491E02D0994F894FFCFFC
:10017A000000000000000000000000000000000075
:10018A000000000000000000000000000000000065
:10019A000000000000000000000000000000000055
:1001AA000000000000000000000000000000000045
:1001BA000000000000000000000000000000000035
:1001CA00000000000000000000000000FEFEFEFE2D
:1001DA00FEFEFEFEFEFEFEFEFEFEFEFEFEFEFEFE35
:1001EA00FEFEFEFEFEFEFE00000000000000000013
:1001FA0000000000FEFEFEFEFEFEFEFEFEFEFEFE0D
:10020A00FEFEFEFEFEFEFEFEFEFEFEFEFEFEFE0002
:10021A0000000000000000000000000000000000D4
:10022A00FFFFFFFFFFFFFFFFFFFFFFFFFFFFFFFFD4
:10023A00FFFFFFFFFFFFFFFFFFFFFF0000000000BF
:10024A000000000000000000FFFFFFFFFFFFFFFFAC
:10025A00FFFFFFFFFFFFFFFFFFFFFFFFFFFFFFFFA4
:10026A00FFFFFF0000000000000000000000000087
:10027A0000000000FFFFFFFFFFFFFFFFFFFFFFFF80
:10028A00FFFFFFFFFFFFFFFFFFFFFFFFFFFFFF0073
:10029A00000000000000000000000000FFFFFFFF58
:1002AA00FFFFFFFFFFFFFFFFFFFFFFFFFFFFFFFF54
:1002BA00FFFFFFFFFFFFFF0000000000000000003B
:1002CA000000000000000000FFFFFFFFFFFFFFFF2C
:1002DA00FFFFFFFFFFFFFFFFFFFFFFFFFFFFFFFF24
:1002EA00FFFFFF0000000000000000000000000007
:1002FA00FFFFFFFFFFFFFFFFFFFFFFFFFFFFFFFF04
:10030A00FFFFFFFFFFFFFFFFFFFFFF0000000000EE
:10031A0000000000000000000000000000000000D3
:10032A0000000000000000000000000000000000C3
:10033A0000000000000000000000000000000000B3
:10034A0000000000000000000000000000000000A3
:10035A000000000000000000000000000000000093
:08036A0000000000000000008B
:00000001FF
